:100000000C945D000C9485000C9485000C94850084
:100010000C9485000C9485000C9485000C9485004C
:100020000C9485000C9485000C9485000C9485003C
:100030000C9485000C9485000C9485000C9485002C
:100040000C9453020C9485000C94C3020C949D02F2
:100050000C9485000C9485000C9485000C9485000C
:100060000C9485000C9485000000000024002700FB
:100070002A0000000000250028002B0004040404CE
:100080000404040402020202020203030303030342
:10009000010204081020408001020408102001021F
:1000A00004081020000000080002010000030407FB
:1000B0000000000000000000B20411241FBECFEFBA
:1000C000D8E0DEBFCDBF11E0A0E0B1E0E0EBFDE0A5
:1000D00002C005900D92AC34B107D9F721E0ACE431
:1000E000B1E001C01D92A23FB207E1F710E0CDE5FB
:1000F000D0E004C02197FE010E940105CC35D10754
:10010000C9F70E94F5020C94D6060C940000E1EBAE
:10011000F0E09491EDE9F0E02491E9E8F0E0E49179
:10012000EE2309F43CC0992339F1933091F038F46F
:100130009130A9F0923001F594B59F7D12C09730AF
:1001400091F09830A1F09430B9F4909180009F7DA7
:1001500003C0909180009F77909380000DC094B56C
:100160009F7794BD09C09091B0009F7703C0909194
:10017000B0009F7D9093B000F0E0EE0FFF1FEE58AF
:10018000FF4FA591B4919FB7F894811104C08C9151
:100190002095282302C0EC912E2B2C939FBF08950D
:1001A0003FB7F8948091510190915201A091530171
:1001B000B091540126B5A89B05C02F3F19F00196B8
:1001C000A11DB11D3FBFBA2FA92F982F8827820FDD
:1001D000911DA11DB11DBC01CD0142E0660F771F2D
:1001E000881F991F4A95D1F708958F929F92AF92D9
:1001F000BF92CF92DF92EF92FF926B017C010E943F
:10020000D0004B015C01C114D104E104F104F1F010
:100210000E94D000DC01CB0188199909AA09BB0909
:10022000883E9340A105B10570F321E0C21AD108C0
:10023000E108F10888EE880E83E0981EA11CB11C2D
:10024000C114D104E104F10419F7DDCFFF90EF9060
:10025000DF90CF90BF90AF909F908F900895CF92F6
:10026000DF92EF92FF920F931F93CF93DF936C0176
:100270007A018B01C0E0D0E0CE15DF0581F0D80116
:100280006D918D01D601ED91FC910190F081E02DF1
:10029000C6010995892B11F02196EECF7E01C70189
:1002A000DF91CF911F910F91FF90EF90DF90CF9052
:1002B0000895089580E090E00895FC01538D448DE9
:1002C000252F30E0842F90E0821B930B541710F001
:1002D000CF96089501970895FC01918D828D98170E
:1002E00061F0828DDF01A80FB11D5D968C91928D1A
:1002F0009F5F9F73928F90E008958FEF9FEF089517
:10030000FC01918D828D981731F0828DE80FF11DDF
:10031000858D90E008958FEF9FEF0895FC01918DFA
:10032000228D892F90E0805C9F4F821B91098F73F3
:100330009927089585E591E00E948E0121E0892B9F
:1003400009F420E0822F0895FC01848DDF01A80FBD
:10035000B11DA35ABF4F2C91848D90E001968F73ED
:100360009927848FA689B7892C93A089B1898C910C
:10037000837080648C93938D848D981306C002885B
:10038000F389E02D80818F7D80830895EF92FF9225
:100390000F931F93CF93DF93EC0181E0888F9B8DA8
:1003A0008C8D981305C0E889F989808185FD26C068
:1003B000F62E0B8D10E00F5F1F4F0F731127E02EED
:1003C0008C8DE8120CC00FB607FCFACFE889F989CA
:1003D000808185FFF5CFCE010E94A401F1CF8B8DE6
:1003E000FE01E80FF11DE35AFF4FF0829FB7F8942A
:1003F0000B8FEA89FB89808180620AC09FB7F894DD
:10040000EE89FF896083E889F9898081837080643F
:1004100080839FBF81E090E0DF91CF911F910F918A
:10042000FF90EF900895CF93DF93EC01888D8823A0
:10043000C9F0EA89FB89808185FD05C0A889B98951
:100440008C9186FD0FC00FB607FCF5CF808185FF2C
:10045000F2CFA889B9898C9185FFEDCFCE010E949A
:10046000A401E7CFDF91CF91089580E090E0892B40
:1004700029F00E949A0181110C94000008950097C0
:1004800069F0FC0101900020E9F73197AF01481BAA
:10049000590BBC0185E591E00C942F0180E090E0C0
:1004A00008950E94D1061F920F920FB60F92112449
:1004B0002F933F938F939F93AF93BF9380914D0161
:1004C00090914E01A0914F01B091500130914C019B
:1004D00023E0230F2D3720F40196A11DB11D05C087
:1004E00026E8230F0296A11DB11D20934C01809395
:1004F0004D0190934E01A0934F01B0935001809114
:10050000510190915201A0915301B0915401019673
:10051000A11DB11D8093510190935201A0935301ED
:10052000B0935401BF91AF919F918F913F912F91C3
:100530000F900FBE0F901F9018951F920F920FB63D
:100540000F9211242F933F934F935F936F937F9359
:100550008F939F93AF93BF93EF93FF9385E591E0C4
:100560000E94A401FF91EF91BF91AF919F918F9154
:100570007F916F915F914F913F912F910F900FBE9F
:100580000F901F9018951F920F920FB60F92112483
:100590002F938F939F93EF93FF93E0916501F091D9
:1005A00066018081E0916B01F0916C0182FD12C0C7
:1005B000908180916E018F5F8F7320916F01821700
:1005C00051F0E0916E01F0E0EB5AFE4F958F809371
:1005D0006E0101C08081FF91EF919F918F912F91CA
:1005E0000F900FBE0F901F901895CF93DF93CDB74C
:1005F000DEB7A1970FB6F894DEBF0FBECDBF7894DB
:1006000084B5826084BD84B5816084BD85B5826017
:1006100085BD85B5816085BD80916E0081608093C8
:100620006E00109281008091810082608093810031
:100630008091810081608093810080918000816041
:10064000809380008091B10084608093B10080919C
:10065000B00081608093B00080917A0084608093C4
:100660007A0080917A00826080937A0080917A008B
:10067000816080937A0080917A00806880937A000C
:100680001092C100EDE9F0E02491E9E8F0E08491F6
:10069000882399F090E0880F991FFC01E859FF4FDB
:1006A000A591B491FC01EE58FF4F859194918FB7BD
:1006B000F894EC91E22BEC938FBFE0916501F091FF
:1006C000660182E08083E0916101F0916201108215
:1006D000E0916301F09164018FEC808310926D01D1
:1006E000E0916901F0916A0186E08083E091670101
:1006F000F0916801808180618083E0916701F091D1
:100700006801808188608083E0916701F0916801D1
:10071000808180688083E0916701F0916801808129
:100720008F7D808380E4382E30927C0080917A0027
:10073000806480937A0080917A0086FDFCCF60917E
:1007400078008091790070E0782B072E000C880BE0
:10075000990B0E94AA052AE038E240EA5BE30E9476
:100760005F066B017C014B015C0182E191E00E941C
:100770003F02A7019601C701B6010E94CC0688235B
:1007800019F08DE391E01AC026013701E89477F85B
:100790002FEF3FEF4FE75FE7C301B2010E94CC06A6
:1007A00081110FC02FEF3FEF4FE75FE7C301B201A9
:1007B0000E94740518162CF481E491E00E943F0217
:1007C000A0C02FEF3FEF4FE75FE4C701B6010E94E3
:1007D0005A0618161CF485E491E0F0CF2FEF3FEF96
:1007E0004FE75FECC701B6010E94740587FDF3CFA8
:1007F00020E030E0A901C701B6010E94740587FF1F
:100800000BC06DE285E591E00E94C60146015701EB
:10081000B7FAB094B7F8B0942AE037ED43EA5BE357
:10082000C501B4010E9408056B017C010E94790595
:100830004B015C010E94A8059B01AC01C701B601F8
:100840000E9407052B013C0119A27E0181E2E80EFE
:10085000F11C0E2DDF2CC501B4012AE030E040E090
:1008600050E00E94DF0449015A01605DF701629384
:100870007F01232B242B252B71F7CF010E943F02F0
:100880006EE285E591E00E94C60113E01150C9F1C6
:1008900020E030E040E251E4C301B2010E945F0673
:1008A0004B015C010E9479059B0140E050E019A2D8
:1008B000E02EFD2C562E632E742EC52ECA01B901D2
:1008C0002AE030E040E050E00E94DF04605DF70184
:1008D00062937F01211531054105510579F7CF015B
:1008E0000E943F02652D762D872D9C2D0E94A80524
:1008F0009B01AC01C501B4010E9407052B013C011D
:10090000C5CF89E491E00E943F0281E00E94870008
:100910006CE271E080E090E00E94F50080E00E94CF
:1009200087006CE271E080E090E00E94F50081E0D9
:100930000E9487006CE271E080E090E00E94F50088
:1009400080E00E9487006CE271E080E090E00E940D
:10095000F50068EB7BE080E090E00E94F5000E94EB
:100960003502E2CEE5E5F1E01382128288EE93E0F3
:10097000A0E0B0E084839583A683B78384E091E010
:100980009183808385EC90E09587848784EC90E068
:100990009787868780EC90E0918B808B81EC90E04C
:1009A000938B828B82EC90E0958B848B86EC90E02D
:1009B000978B868B118E128E138E148E0895A1E262
:1009C0001A2EAA1BBB1BFD010DC0AA1FBB1FEE1FC9
:1009D000FF1FA217B307E407F50720F0A21BB30B14
:1009E000E40BF50B661F771F881F991F1A9469F790
:1009F00060957095809590959B01AC01BD01CF01EC
:100A00000895EE0FFF1F0590F491E02D09945058C2
:100A1000BB27AA270E941F050C9420060E941206DD
:100A200038F00E94190620F039F49F3F19F426F49B
:100A30000C940F060EF4E095E7FB0C940906E92FE1
:100A40000E94310658F3BA176207730784079507A7
:100A500020F079F4A6F50C9453060EF4E0950B2ED5
:100A6000BA2FA02D0B01B90190010C01CA01A00100
:100A70001124FF27591B99F0593F50F4503E68F15B
:100A80001A16F040A22F232F342F4427585FF3CF9C
:100A9000469537952795A795F0405395C9F77EF46D
:100AA0001F16BA0B620B730B840BBAF09150A1F0B6
:100AB000FF0FBB1F661F771F881FC2F70EC0BA0F3C
:100AC000621F731F841F48F4879577956795B795C4
:100AD000F7959E3F08F0B0CF9395880F08F09927BF
:100AE000EE0F9795879508950E94E50508F481E03B
:100AF00008950E94390688F09F5798F0B92F9927DA
:100B0000B751B0F0E1F0660F771F881F991F1AF0F8
:100B1000BA95C9F714C0B13091F00E945306B1E004
:100B200008950C945306672F782F8827B85F39F003
:100B3000B93FCCF3869577956795B395D9F73EF491
:100B400090958095709561957F4F8F4F9F4F089539
:100B5000E89409C097FB3EF4909580957095619557
:100B60007F4F8F4F9F4F9923A9F0F92F96E9BB270D
:100B70009395F695879577956795B795F111F8CF89
:100B8000FAF4BB0F11F460FF1BC06F5F7F4F8F4FF4
:100B90009F4F16C0882311F096E911C0772321F0EA
:100BA0009EE8872F762F05C0662371F096E8862F82
:100BB00070E060E02AF09A95660F771F881FDAF7D9
:100BC000880F9695879597F90895990F0008550F06
:100BD000AA0BE0E8FEEF16161706E807F907C0F0C3
:100BE00012161306E407F50798F0621B730B840BCB
:100BF000950B39F40A2661F0232B242B252B21F4A5
:100C000008950A2609F4A140A6958FEF811D811D44
:100C1000089597F99F6780E870E060E008959FEF7E
:100C200080EC089500240A94161617061806090683
:100C3000089500240A941216130614060506089552
:100C4000092E0394000C11F4882352F0BB0F40F4DA
:100C5000BF2B11F460FF04C06F5F7F4F8F4F9F4F1A
:100C6000089557FD9058440F551F59F05F3F71F09C
:100C70004795880F97FB991F61F09F3F79F0879503
:100C80000895121613061406551FF2CF4695F1DF8C
:100C900008C0161617061806991FF1CF869571051C
:100CA000610508940895E894BB2766277727CB0150
:100CB00097F908950E94E50508F48FEF08950E94C2
:100CC00072060C9420060E94120638F00E94190643
:100CD00020F0952311F00C9409060C940F061124B2
:100CE0000C9454060E94310670F3959FC1F3950F42
:100CF00050E0551F629FF001729FBB27F00DB11DA0
:100D0000639FAA27F00DB11DAA1F649F6627B00D2F
:100D1000A11D661F829F2227B00DA11D621F739F18
:100D2000B00DA11D621F839FA00D611D221F749F26
:100D30003327A00D611D231F849F600D211D822F6D
:100D4000762F6A2F11249F5750409AF0F1F0882394
:100D50004AF0EE0FFF1FBB1F661F771F881F9150C1
:100D60005040A9F79E3F510580F00C9409060C9461
:100D700054065F3FE4F3983ED4F3869577956795E4
:100D8000B795F795E7959F5FC1F7FE2B880F911DEB
:100D90009695879597F908950E94E505880B990B1C
:100DA000089581E090E0F8940C94D606F894FFCF73
:100DB00000000000C6012F015D0113028E016C01CD
:100DC000800153657269616C2070726F6F66207369
:100DD000686F77696E6720413020617320612076EB
:100DE0006F6C746167653A202D2D3E20006E616E38
:0C0DF00000696E66006F7666000D0A0058
:00000001FF
